{
  "_format": "hh-sol-artifact-1",
  "contractName": "ReferralNft",
  "sourceName": "contracts/ReferralNft.sol",
  "abi": [
    {
      "inputs": [],
      "stateMutability": "nonpayable",
      "type": "constructor"
    },
    {
      "anonymous": false,
      "inputs": [
        {
          "indexed": true,
          "internalType": "address",
          "name": "owner",
          "type": "address"
        },
        {
          "indexed": true,
          "internalType": "address",
          "name": "approved",
          "type": "address"
        },
        {
          "indexed": true,
          "internalType": "uint256",
          "name": "tokenId",
          "type": "uint256"
        }
      ],
      "name": "Approval",
      "type": "event"
    },
    {
      "anonymous": false,
      "inputs": [
        {
          "indexed": true,
          "internalType": "address",
          "name": "owner",
          "type": "address"
        },
        {
          "indexed": true,
          "internalType": "address",
          "name": "operator",
          "type": "address"
        },
        {
          "indexed": false,
          "internalType": "bool",
          "name": "approved",
          "type": "bool"
        }
      ],
      "name": "ApprovalForAll",
      "type": "event"
    },
    {
      "anonymous": false,
      "inputs": [
        {
          "indexed": false,
          "internalType": "uint256",
          "name": "id",
          "type": "uint256"
        },
        {
          "indexed": false,
          "internalType": "string",
          "name": "_employeeName",
          "type": "string"
        },
        {
          "indexed": false,
          "internalType": "string",
          "name": "_companyName",
          "type": "string"
        },
        {
          "indexed": false,
          "internalType": "string",
          "name": "_nftImageLlink",
          "type": "string"
        },
        {
          "indexed": false,
          "internalType": "string",
          "name": "_website",
          "type": "string"
        },
        {
          "indexed": false,
          "internalType": "string",
          "name": "_recommendation",
          "type": "string"
        },
        {
          "indexed": false,
          "internalType": "address",
          "name": "from",
          "type": "address"
        }
      ],
      "name": "NewEmploymentReference",
      "type": "event"
    },
    {
      "anonymous": false,
      "inputs": [
        {
          "indexed": true,
          "internalType": "address",
          "name": "from",
          "type": "address"
        },
        {
          "indexed": true,
          "internalType": "address",
          "name": "to",
          "type": "address"
        },
        {
          "indexed": true,
          "internalType": "uint256",
          "name": "tokenId",
          "type": "uint256"
        }
      ],
      "name": "Transfer",
      "type": "event"
    },
    {
      "inputs": [
        {
          "internalType": "address",
          "name": "to",
          "type": "address"
        },
        {
          "internalType": "uint256",
          "name": "tokenId",
          "type": "uint256"
        }
      ],
      "name": "approve",
      "outputs": [],
      "stateMutability": "nonpayable",
      "type": "function"
    },
    {
      "inputs": [
        {
          "internalType": "address",
          "name": "owner",
          "type": "address"
        }
      ],
      "name": "balanceOf",
      "outputs": [
        {
          "internalType": "uint256",
          "name": "",
          "type": "uint256"
        }
      ],
      "stateMutability": "view",
      "type": "function"
    },
    {
      "inputs": [],
      "name": "employmentReferenceCounter",
      "outputs": [
        {
          "internalType": "uint256",
          "name": "",
          "type": "uint256"
        }
      ],
      "stateMutability": "view",
      "type": "function"
    },
    {
      "inputs": [
        {
          "internalType": "uint256",
          "name": "",
          "type": "uint256"
        }
      ],
      "name": "employmentReferenceList",
      "outputs": [
        {
          "internalType": "uint256",
          "name": "id",
          "type": "uint256"
        },
        {
          "internalType": "string",
          "name": "employeeName",
          "type": "string"
        },
        {
          "internalType": "string",
          "name": "companyName",
          "type": "string"
        },
        {
          "internalType": "string",
          "name": "nftImageLlink",
          "type": "string"
        },
        {
          "internalType": "string",
          "name": "website",
          "type": "string"
        },
        {
          "internalType": "string",
          "name": "recommendation",
          "type": "string"
        },
        {
          "internalType": "address",
          "name": "employeeWalletAddress",
          "type": "address"
        }
      ],
      "stateMutability": "view",
      "type": "function"
    },
    {
      "inputs": [
        {
          "internalType": "uint256",
          "name": "tokenId",
          "type": "uint256"
        }
      ],
      "name": "getApproved",
      "outputs": [
        {
          "internalType": "address",
          "name": "",
          "type": "address"
        }
      ],
      "stateMutability": "view",
      "type": "function"
    },
    {
      "inputs": [
        {
          "internalType": "address",
          "name": "owner",
          "type": "address"
        },
        {
          "internalType": "address",
          "name": "operator",
          "type": "address"
        }
      ],
      "name": "isApprovedForAll",
      "outputs": [
        {
          "internalType": "bool",
          "name": "",
          "type": "bool"
        }
      ],
      "stateMutability": "view",
      "type": "function"
    },
    {
      "inputs": [
        {
          "internalType": "string",
          "name": "tokenURI",
          "type": "string"
        }
      ],
      "name": "mintNft",
      "outputs": [
        {
          "internalType": "uint256",
          "name": "",
          "type": "uint256"
        }
      ],
      "stateMutability": "nonpayable",
      "type": "function"
    },
    {
      "inputs": [],
      "name": "name",
      "outputs": [
        {
          "internalType": "string",
          "name": "",
          "type": "string"
        }
      ],
      "stateMutability": "view",
      "type": "function"
    },
    {
      "inputs": [
        {
          "internalType": "string",
          "name": "_employeeName",
          "type": "string"
        },
        {
          "internalType": "string",
          "name": "_companyName",
          "type": "string"
        },
        {
          "internalType": "string",
          "name": "_nftImageLlink",
          "type": "string"
        },
        {
          "internalType": "string",
          "name": "_website",
          "type": "string"
        },
        {
          "internalType": "string",
          "name": "_recommendation",
          "type": "string"
        }
      ],
      "name": "newEmploymentReference",
      "outputs": [],
      "stateMutability": "nonpayable",
      "type": "function"
    },
    {
      "inputs": [
        {
          "internalType": "uint256",
          "name": "tokenId",
          "type": "uint256"
        }
      ],
      "name": "ownerOf",
      "outputs": [
        {
          "internalType": "address",
          "name": "",
          "type": "address"
        }
      ],
      "stateMutability": "view",
      "type": "function"
    },
    {
      "inputs": [
        {
          "internalType": "address",
          "name": "from",
          "type": "address"
        },
        {
          "internalType": "address",
          "name": "to",
          "type": "address"
        },
        {
          "internalType": "uint256",
          "name": "tokenId",
          "type": "uint256"
        }
      ],
      "name": "safeTransferFrom",
      "outputs": [],
      "stateMutability": "nonpayable",
      "type": "function"
    },
    {
      "inputs": [
        {
          "internalType": "address",
          "name": "from",
          "type": "address"
        },
        {
          "internalType": "address",
          "name": "to",
          "type": "address"
        },
        {
          "internalType": "uint256",
          "name": "tokenId",
          "type": "uint256"
        },
        {
          "internalType": "bytes",
          "name": "_data",
          "type": "bytes"
        }
      ],
      "name": "safeTransferFrom",
      "outputs": [],
      "stateMutability": "nonpayable",
      "type": "function"
    },
    {
      "inputs": [
        {
          "internalType": "address",
          "name": "operator",
          "type": "address"
        },
        {
          "internalType": "bool",
          "name": "approved",
          "type": "bool"
        }
      ],
      "name": "setApprovalForAll",
      "outputs": [],
      "stateMutability": "nonpayable",
      "type": "function"
    },
    {
      "inputs": [
        {
          "internalType": "bytes4",
          "name": "interfaceId",
          "type": "bytes4"
        }
      ],
      "name": "supportsInterface",
      "outputs": [
        {
          "internalType": "bool",
          "name": "",
          "type": "bool"
        }
      ],
      "stateMutability": "view",
      "type": "function"
    },
    {
      "inputs": [],
      "name": "symbol",
      "outputs": [
        {
          "internalType": "string",
          "name": "",
          "type": "string"
        }
      ],
      "stateMutability": "view",
      "type": "function"
    },
    {
      "inputs": [
        {
          "internalType": "uint256",
          "name": "tokenId",
          "type": "uint256"
        }
      ],
      "name": "tokenURI",
      "outputs": [
        {
          "internalType": "string",
          "name": "",
          "type": "string"
        }
      ],
      "stateMutability": "view",
      "type": "function"
    },
    {
      "inputs": [
        {
          "internalType": "address",
          "name": "from",
          "type": "address"
        },
        {
          "internalType": "address",
          "name": "to",
          "type": "address"
        },
        {
          "internalType": "uint256",
          "name": "tokenId",
          "type": "uint256"
        }
      ],
      "name": "transferFrom",
      "outputs": [],
      "stateMutability": "nonpayable",
      "type": "function"
    }
  ],
  "bytecode": "0x60806040523480156200001157600080fd5b506040518060400160405280600981526020017f726566657272616c7300000000000000000000000000000000000000000000008152506040518060400160405280600381526020017f45524c0000000000000000000000000000000000000000000000000000000000815250816000908051906020019062000096929190620000b8565b508060019080519060200190620000af929190620000b8565b505050620001cd565b828054620000c69062000168565b90600052602060002090601f016020900481019282620000ea576000855562000136565b82601f106200010557805160ff191683800117855562000136565b8280016001018555821562000136579182015b828111156200013557825182559160200191906001019062000118565b5b50905062000145919062000149565b5090565b5b80821115620001645760008160009055506001016200014a565b5090565b600060028204905060018216806200018157607f821691505b602082108114156200019857620001976200019e565b5b50919050565b7f4e487b7100000000000000000000000000000000000000000000000000000000600052602260045260246000fd5b61323680620001dd6000396000f3fe608060405234801561001057600080fd5b506004361061010b5760003560e01c80637534f778116100a2578063b88d4fde11610071578063b88d4fde146102b6578063c87b56dd146102d2578063da86f4a914610302578063e985e9c514610332578063eddb4863146103625761010b565b80637534f77814610242578063930bf4bb1461026057806395d89b411461027c578063a22cb4651461029a5761010b565b806323b872dd116100de57806323b872dd146101aa57806342842e0e146101c65780636352211e146101e257806370a08231146102125761010b565b806301ffc9a71461011057806306fdde0314610140578063081812fc1461015e578063095ea7b31461018e575b600080fd5b61012a60048036038101906101259190612121565b610398565b6040516101379190612657565b60405180910390f35b61014861047a565b6040516101559190612672565b60405180910390f35b610178600480360381019061017391906122a3565b61050c565b60405161018591906125f0565b60405180910390f35b6101a860048036038101906101a391906120e5565b610591565b005b6101c460048036038101906101bf9190611fdf565b6106a9565b005b6101e060048036038101906101db9190611fdf565b610709565b005b6101fc60048036038101906101f791906122a3565b610729565b60405161020991906125f0565b60405180910390f35b61022c60048036038101906102279190611f7a565b6107db565b6040516102399190612894565b60405180910390f35b61024a610893565b6040516102579190612894565b60405180910390f35b61027a600480360381019061027591906121b4565b610899565b005b610284610a44565b6040516102919190612672565b60405180910390f35b6102b460048036038101906102af91906120a9565b610ad6565b005b6102d060048036038101906102cb919061202e565b610aec565b005b6102ec60048036038101906102e791906122a3565b610b4e565b6040516102f99190612672565b60405180910390f35b61031c60048036038101906103179190612173565b610ca0565b6040516103299190612894565b60405180910390f35b61034c60048036038101906103479190611fa3565b610cde565b6040516103599190612657565b60405180910390f35b61037c600480360381019061037791906122a3565b610d72565b60405161038f97969594939291906128af565b60405180910390f35b60007f80ac58cd000000000000000000000000000000000000000000000000000000007bffffffffffffffffffffffffffffffffffffffffffffffffffffffff1916827bffffffffffffffffffffffffffffffffffffffffffffffffffffffff1916148061046357507f5b5e139f000000000000000000000000000000000000000000000000000000007bffffffffffffffffffffffffffffffffffffffffffffffffffffffff1916827bffffffffffffffffffffffffffffffffffffffffffffffffffffffff1916145b8061047357506104728261107c565b5b9050919050565b60606000805461048990612b7c565b80601f01602080910402602001604051908101604052809291908181526020018280546104b590612b7c565b80156105025780601f106104d757610100808354040283529160200191610502565b820191906000526020600020905b8154815290600101906020018083116104e557829003601f168201915b5050505050905090565b6000610517826110e6565b610556576040517f08c379a000000000000000000000000000000000000000000000000000000000815260040161054d90612814565b60405180910390fd5b6004600083815260200190815260200160002060009054906101000a900473ffffffffffffffffffffffffffffffffffffffff169050919050565b600061059c82610729565b90508073ffffffffffffffffffffffffffffffffffffffff168373ffffffffffffffffffffffffffffffffffffffff16141561060d576040517f08c379a000000000000000000000000000000000000000000000000000000000815260040161060490612854565b60405180910390fd5b8073ffffffffffffffffffffffffffffffffffffffff1661062c611152565b73ffffffffffffffffffffffffffffffffffffffff16148061065b575061065a81610655611152565b610cde565b5b61069a576040517f08c379a000000000000000000000000000000000000000000000000000000000815260040161069190612754565b60405180910390fd5b6106a4838361115a565b505050565b6106ba6106b4611152565b82611213565b6106f9576040517f08c379a00000000000000000000000000000000000000000000000000000000081526004016106f090612874565b60405180910390fd5b6107048383836112f1565b505050565b61072483838360405180602001604052806000815250610aec565b505050565b6000806002600084815260200190815260200160002060009054906101000a900473ffffffffffffffffffffffffffffffffffffffff169050600073ffffffffffffffffffffffffffffffffffffffff168173ffffffffffffffffffffffffffffffffffffffff1614156107d2576040517f08c379a00000000000000000000000000000000000000000000000000000000081526004016107c990612794565b60405180910390fd5b80915050919050565b60008073ffffffffffffffffffffffffffffffffffffffff168273ffffffffffffffffffffffffffffffffffffffff16141561084c576040517f08c379a000000000000000000000000000000000000000000000000000000000815260040161084390612774565b60405180910390fd5b600360008373ffffffffffffffffffffffffffffffffffffffff1673ffffffffffffffffffffffffffffffffffffffff168152602001908152602001600020549050919050565b60075481565b6001600760008282546108ac9190612a0b565b925050819055506040518060e0016040528060075481526020018681526020018581526020018481526020018381526020018281526020013373ffffffffffffffffffffffffffffffffffffffff16815250600860006007548152602001908152602001600020600082015181600001556020820151816001019080519060200190610939929190611d9e565b506040820151816002019080519060200190610956929190611d9e565b506060820151816003019080519060200190610973929190611d9e565b506080820151816004019080519060200190610990929190611d9e565b5060a08201518160050190805190602001906109ad929190611d9e565b5060c08201518160060160006101000a81548173ffffffffffffffffffffffffffffffffffffffff021916908373ffffffffffffffffffffffffffffffffffffffff1602179055509050507f1fd325adea189001c59dc4fa564c7c0b03378ccb92ed18a388e2d319630d559d600754868686868633604051610a3597969594939291906128af565b60405180910390a15050505050565b606060018054610a5390612b7c565b80601f0160208091040260200160405190810160405280929190818152602001828054610a7f90612b7c565b8015610acc5780601f10610aa157610100808354040283529160200191610acc565b820191906000526020600020905b815481529060010190602001808311610aaf57829003601f168201915b5050505050905090565b610ae8610ae1611152565b8383611558565b5050565b610afd610af7611152565b83611213565b610b3c576040517f08c379a0000000000000000000000000000000000000000000000000000000008152600401610b3390612874565b60405180910390fd5b610b48848484846116c5565b50505050565b6060610b59826110e6565b610b98576040517f08c379a0000000000000000000000000000000000000000000000000000000008152600401610b8f906127f4565b60405180910390fd5b6000600660008481526020019081526020016000208054610bb890612b7c565b80601f0160208091040260200160405190810160405280929190818152602001828054610be490612b7c565b8015610c315780601f10610c0657610100808354040283529160200191610c31565b820191906000526020600020905b815481529060010190602001808311610c1457829003601f168201915b505050505090506000610c42611721565b9050600081511415610c58578192505050610c9b565b600082511115610c8d578082604051602001610c759291906125cc565b60405160208183030381529060405292505050610c9b565b610c9684611738565b925050505b919050565b6000600160076000828254610cb59190612a0b565b92505081905550610cc8336007546117df565b610cd4600754836119b9565b6007549050919050565b6000600560008473ffffffffffffffffffffffffffffffffffffffff1673ffffffffffffffffffffffffffffffffffffffff16815260200190815260200160002060008373ffffffffffffffffffffffffffffffffffffffff1673ffffffffffffffffffffffffffffffffffffffff16815260200190815260200160002060009054906101000a900460ff16905092915050565b6008602052806000526040600020600091509050806000015490806001018054610d9b90612b7c565b80601f0160208091040260200160405190810160405280929190818152602001828054610dc790612b7c565b8015610e145780601f10610de957610100808354040283529160200191610e14565b820191906000526020600020905b815481529060010190602001808311610df757829003601f168201915b505050505090806002018054610e2990612b7c565b80601f0160208091040260200160405190810160405280929190818152602001828054610e5590612b7c565b8015610ea25780601f10610e7757610100808354040283529160200191610ea2565b820191906000526020600020905b815481529060010190602001808311610e8557829003601f168201915b505050505090806003018054610eb790612b7c565b80601f0160208091040260200160405190810160405280929190818152602001828054610ee390612b7c565b8015610f305780601f10610f0557610100808354040283529160200191610f30565b820191906000526020600020905b815481529060010190602001808311610f1357829003601f168201915b505050505090806004018054610f4590612b7c565b80601f0160208091040260200160405190810160405280929190818152602001828054610f7190612b7c565b8015610fbe5780601f10610f9357610100808354040283529160200191610fbe565b820191906000526020600020905b815481529060010190602001808311610fa157829003601f168201915b505050505090806005018054610fd390612b7c565b80601f0160208091040260200160405190810160405280929190818152602001828054610fff90612b7c565b801561104c5780601f106110215761010080835404028352916020019161104c565b820191906000526020600020905b81548152906001019060200180831161102f57829003601f168201915b5050505050908060060160009054906101000a900473ffffffffffffffffffffffffffffffffffffffff16905087565b60007f01ffc9a7000000000000000000000000000000000000000000000000000000007bffffffffffffffffffffffffffffffffffffffffffffffffffffffff1916827bffffffffffffffffffffffffffffffffffffffffffffffffffffffff1916149050919050565b60008073ffffffffffffffffffffffffffffffffffffffff166002600084815260200190815260200160002060009054906101000a900473ffffffffffffffffffffffffffffffffffffffff1673ffffffffffffffffffffffffffffffffffffffff1614159050919050565b600033905090565b816004600083815260200190815260200160002060006101000a81548173ffffffffffffffffffffffffffffffffffffffff021916908373ffffffffffffffffffffffffffffffffffffffff160217905550808273ffffffffffffffffffffffffffffffffffffffff166111cd83610729565b73ffffffffffffffffffffffffffffffffffffffff167f8c5be1e5ebec7d5bd14f71427d1e84f3dd0314c0f7b2291e5b200ac8c7c3b92560405160405180910390a45050565b600061121e826110e6565b61125d576040517f08c379a000000000000000000000000000000000000000000000000000000000815260040161125490612734565b60405180910390fd5b600061126883610729565b90508073ffffffffffffffffffffffffffffffffffffffff168473ffffffffffffffffffffffffffffffffffffffff1614806112aa57506112a98185610cde565b5b806112e857508373ffffffffffffffffffffffffffffffffffffffff166112d08461050c565b73ffffffffffffffffffffffffffffffffffffffff16145b91505092915050565b8273ffffffffffffffffffffffffffffffffffffffff1661131182610729565b73ffffffffffffffffffffffffffffffffffffffff1614611367576040517f08c379a000000000000000000000000000000000000000000000000000000000815260040161135e906126b4565b60405180910390fd5b600073ffffffffffffffffffffffffffffffffffffffff168273ffffffffffffffffffffffffffffffffffffffff1614156113d7576040517f08c379a00000000000000000000000000000000000000000000000000000000081526004016113ce906126f4565b60405180910390fd5b6113e2838383611a2d565b6113ed60008261115a565b6001600360008573ffffffffffffffffffffffffffffffffffffffff1673ffffffffffffffffffffffffffffffffffffffff168152602001908152602001600020600082825461143d9190612a92565b925050819055506001600360008473ffffffffffffffffffffffffffffffffffffffff1673ffffffffffffffffffffffffffffffffffffffff16815260200190815260200160002060008282546114949190612a0b565b92505081905550816002600083815260200190815260200160002060006101000a81548173ffffffffffffffffffffffffffffffffffffffff021916908373ffffffffffffffffffffffffffffffffffffffff160217905550808273ffffffffffffffffffffffffffffffffffffffff168473ffffffffffffffffffffffffffffffffffffffff167fddf252ad1be2c89b69c2b068fc378daa952ba7f163c4a11628f55a4df523b3ef60405160405180910390a4611553838383611a32565b505050565b8173ffffffffffffffffffffffffffffffffffffffff168373ffffffffffffffffffffffffffffffffffffffff1614156115c7576040517f08c379a00000000000000000000000000000000000000000000000000000000081526004016115be90612714565b60405180910390fd5b80600560008573ffffffffffffffffffffffffffffffffffffffff1673ffffffffffffffffffffffffffffffffffffffff16815260200190815260200160002060008473ffffffffffffffffffffffffffffffffffffffff1673ffffffffffffffffffffffffffffffffffffffff16815260200190815260200160002060006101000a81548160ff0219169083151502179055508173ffffffffffffffffffffffffffffffffffffffff168373ffffffffffffffffffffffffffffffffffffffff167f17307eab39ab6107e8899845ad3d59bd9653f200f220920489ca2b5937696c31836040516116b89190612657565b60405180910390a3505050565b6116d08484846112f1565b6116dc84848484611a37565b61171b576040517f08c379a000000000000000000000000000000000000000000000000000000000815260040161171290612694565b60405180910390fd5b50505050565b606060405180602001604052806000815250905090565b6060611743826110e6565b611782576040517f08c379a000000000000000000000000000000000000000000000000000000000815260040161177990612834565b60405180910390fd5b600061178c611721565b905060008151116117ac57604051806020016040528060008152506117d7565b806117b684611bce565b6040516020016117c79291906125cc565b6040516020818303038152906040525b915050919050565b600073ffffffffffffffffffffffffffffffffffffffff168273ffffffffffffffffffffffffffffffffffffffff16141561184f576040517f08c379a0000000000000000000000000000000000000000000000000000000008152600401611846906127d4565b60405180910390fd5b611858816110e6565b15611898576040517f08c379a000000000000000000000000000000000000000000000000000000000815260040161188f906126d4565b60405180910390fd5b6118a460008383611a2d565b6001600360008473ffffffffffffffffffffffffffffffffffffffff1673ffffffffffffffffffffffffffffffffffffffff16815260200190815260200160002060008282546118f49190612a0b565b92505081905550816002600083815260200190815260200160002060006101000a81548173ffffffffffffffffffffffffffffffffffffffff021916908373ffffffffffffffffffffffffffffffffffffffff160217905550808273ffffffffffffffffffffffffffffffffffffffff16600073ffffffffffffffffffffffffffffffffffffffff167fddf252ad1be2c89b69c2b068fc378daa952ba7f163c4a11628f55a4df523b3ef60405160405180910390a46119b560008383611a32565b5050565b6119c2826110e6565b611a01576040517f08c379a00000000000000000000000000000000000000000000000000000000081526004016119f8906127b4565b60405180910390fd5b80600660008481526020019081526020016000209080519060200190611a28929190611d9e565b505050565b505050565b505050565b6000611a588473ffffffffffffffffffffffffffffffffffffffff16611d7b565b15611bc1578373ffffffffffffffffffffffffffffffffffffffff1663150b7a02611a81611152565b8786866040518563ffffffff1660e01b8152600401611aa3949392919061260b565b602060405180830381600087803b158015611abd57600080fd5b505af1925050508015611aee57506040513d601f19601f82011682018060405250810190611aeb919061214a565b60015b611b71573d8060008114611b1e576040519150601f19603f3d011682016040523d82523d6000602084013e611b23565b606091505b50600081511415611b69576040517f08c379a0000000000000000000000000000000000000000000000000000000008152600401611b6090612694565b60405180910390fd5b805181602001fd5b63150b7a0260e01b7bffffffffffffffffffffffffffffffffffffffffffffffffffffffff1916817bffffffffffffffffffffffffffffffffffffffffffffffffffffffff191614915050611bc6565b600190505b949350505050565b60606000821415611c16576040518060400160405280600181526020017f30000000000000000000000000000000000000000000000000000000000000008152509050611d76565b600082905060005b60008214611c48578080611c3190612bdf565b915050600a82611c419190612a61565b9150611c1e565b60008167ffffffffffffffff811115611c8a577f4e487b7100000000000000000000000000000000000000000000000000000000600052604160045260246000fd5b6040519080825280601f01601f191660200182016040528015611cbc5781602001600182028036833780820191505090505b5090505b60008514611d6f57600182611cd59190612a92565b9150600a85611ce49190612c28565b6030611cf09190612a0b565b60f81b818381518110611d2c577f4e487b7100000000000000000000000000000000000000000000000000000000600052603260045260246000fd5b60200101907effffffffffffffffffffffffffffffffffffffffffffffffffffffffffffff1916908160001a905350600a85611d689190612a61565b9450611cc0565b8093505050505b919050565b6000808273ffffffffffffffffffffffffffffffffffffffff163b119050919050565b828054611daa90612b7c565b90600052602060002090601f016020900481019282611dcc5760008555611e13565b82601f10611de557805160ff1916838001178555611e13565b82800160010185558215611e13579182015b82811115611e12578251825591602001919060010190611df7565b5b509050611e209190611e24565b5090565b5b80821115611e3d576000816000905550600101611e25565b5090565b6000611e54611e4f84612966565b612941565b905082815260208101848484011115611e6c57600080fd5b611e77848285612b3a565b509392505050565b6000611e92611e8d84612997565b612941565b905082815260208101848484011115611eaa57600080fd5b611eb5848285612b3a565b509392505050565b600081359050611ecc816131a4565b92915050565b600081359050611ee1816131bb565b92915050565b600081359050611ef6816131d2565b92915050565b600081519050611f0b816131d2565b92915050565b600082601f830112611f2257600080fd5b8135611f32848260208601611e41565b91505092915050565b600082601f830112611f4c57600080fd5b8135611f5c848260208601611e7f565b91505092915050565b600081359050611f74816131e9565b92915050565b600060208284031215611f8c57600080fd5b6000611f9a84828501611ebd565b91505092915050565b60008060408385031215611fb657600080fd5b6000611fc485828601611ebd565b9250506020611fd585828601611ebd565b9150509250929050565b600080600060608486031215611ff457600080fd5b600061200286828701611ebd565b935050602061201386828701611ebd565b925050604061202486828701611f65565b9150509250925092565b6000806000806080858703121561204457600080fd5b600061205287828801611ebd565b945050602061206387828801611ebd565b935050604061207487828801611f65565b925050606085013567ffffffffffffffff81111561209157600080fd5b61209d87828801611f11565b91505092959194509250565b600080604083850312156120bc57600080fd5b60006120ca85828601611ebd565b92505060206120db85828601611ed2565b9150509250929050565b600080604083850312156120f857600080fd5b600061210685828601611ebd565b925050602061211785828601611f65565b9150509250929050565b60006020828403121561213357600080fd5b600061214184828501611ee7565b91505092915050565b60006020828403121561215c57600080fd5b600061216a84828501611efc565b91505092915050565b60006020828403121561218557600080fd5b600082013567ffffffffffffffff81111561219f57600080fd5b6121ab84828501611f3b565b91505092915050565b600080600080600060a086880312156121cc57600080fd5b600086013567ffffffffffffffff8111156121e657600080fd5b6121f288828901611f3b565b955050602086013567ffffffffffffffff81111561220f57600080fd5b61221b88828901611f3b565b945050604086013567ffffffffffffffff81111561223857600080fd5b61224488828901611f3b565b935050606086013567ffffffffffffffff81111561226157600080fd5b61226d88828901611f3b565b925050608086013567ffffffffffffffff81111561228a57600080fd5b61229688828901611f3b565b9150509295509295909350565b6000602082840312156122b557600080fd5b60006122c384828501611f65565b91505092915050565b6122d581612ac6565b82525050565b6122e481612ad8565b82525050565b60006122f5826129c8565b6122ff81856129de565b935061230f818560208601612b49565b61231881612d15565b840191505092915050565b600061232e826129d3565b61233881856129ef565b9350612348818560208601612b49565b61235181612d15565b840191505092915050565b6000612367826129d3565b6123718185612a00565b9350612381818560208601612b49565b80840191505092915050565b600061239a6032836129ef565b91506123a582612d26565b604082019050919050565b60006123bd6025836129ef565b91506123c882612d75565b604082019050919050565b60006123e0601c836129ef565b91506123eb82612dc4565b602082019050919050565b60006124036024836129ef565b915061240e82612ded565b604082019050919050565b60006124266019836129ef565b915061243182612e3c565b602082019050919050565b6000612449602c836129ef565b915061245482612e65565b604082019050919050565b600061246c6038836129ef565b915061247782612eb4565b604082019050919050565b600061248f602a836129ef565b915061249a82612f03565b604082019050919050565b60006124b26029836129ef565b91506124bd82612f52565b604082019050919050565b60006124d5602e836129ef565b91506124e082612fa1565b604082019050919050565b60006124f86020836129ef565b915061250382612ff0565b602082019050919050565b600061251b6031836129ef565b915061252682613019565b604082019050919050565b600061253e602c836129ef565b915061254982613068565b604082019050919050565b6000612561602f836129ef565b915061256c826130b7565b604082019050919050565b60006125846021836129ef565b915061258f82613106565b604082019050919050565b60006125a76031836129ef565b91506125b282613155565b604082019050919050565b6125c681612b30565b82525050565b60006125d8828561235c565b91506125e4828461235c565b91508190509392505050565b600060208201905061260560008301846122cc565b92915050565b600060808201905061262060008301876122cc565b61262d60208301866122cc565b61263a60408301856125bd565b818103606083015261264c81846122ea565b905095945050505050565b600060208201905061266c60008301846122db565b92915050565b6000602082019050818103600083015261268c8184612323565b905092915050565b600060208201905081810360008301526126ad8161238d565b9050919050565b600060208201905081810360008301526126cd816123b0565b9050919050565b600060208201905081810360008301526126ed816123d3565b9050919050565b6000602082019050818103600083015261270d816123f6565b9050919050565b6000602082019050818103600083015261272d81612419565b9050919050565b6000602082019050818103600083015261274d8161243c565b9050919050565b6000602082019050818103600083015261276d8161245f565b9050919050565b6000602082019050818103600083015261278d81612482565b9050919050565b600060208201905081810360008301526127ad816124a5565b9050919050565b600060208201905081810360008301526127cd816124c8565b9050919050565b600060208201905081810360008301526127ed816124eb565b9050919050565b6000602082019050818103600083015261280d8161250e565b9050919050565b6000602082019050818103600083015261282d81612531565b9050919050565b6000602082019050818103600083015261284d81612554565b9050919050565b6000602082019050818103600083015261286d81612577565b9050919050565b6000602082019050818103600083015261288d8161259a565b9050919050565b60006020820190506128a960008301846125bd565b92915050565b600060e0820190506128c4600083018a6125bd565b81810360208301526128d68189612323565b905081810360408301526128ea8188612323565b905081810360608301526128fe8187612323565b905081810360808301526129128186612323565b905081810360a08301526129268185612323565b905061293560c08301846122cc565b98975050505050505050565b600061294b61295c565b90506129578282612bae565b919050565b6000604051905090565b600067ffffffffffffffff82111561298157612980612ce6565b5b61298a82612d15565b9050602081019050919050565b600067ffffffffffffffff8211156129b2576129b1612ce6565b5b6129bb82612d15565b9050602081019050919050565b600081519050919050565b600081519050919050565b600082825260208201905092915050565b600082825260208201905092915050565b600081905092915050565b6000612a1682612b30565b9150612a2183612b30565b9250827fffffffffffffffffffffffffffffffffffffffffffffffffffffffffffffffff03821115612a5657612a55612c59565b5b828201905092915050565b6000612a6c82612b30565b9150612a7783612b30565b925082612a8757612a86612c88565b5b828204905092915050565b6000612a9d82612b30565b9150612aa883612b30565b925082821015612abb57612aba612c59565b5b828203905092915050565b6000612ad182612b10565b9050919050565b60008115159050919050565b60007fffffffff0000000000000000000000000000000000000000000000000000000082169050919050565b600073ffffffffffffffffffffffffffffffffffffffff82169050919050565b6000819050919050565b82818337600083830152505050565b60005b83811015612b67578082015181840152602081019050612b4c565b83811115612b76576000848401525b50505050565b60006002820490506001821680612b9457607f821691505b60208210811415612ba857612ba7612cb7565b5b50919050565b612bb782612d15565b810181811067ffffffffffffffff82111715612bd657612bd5612ce6565b5b80604052505050565b6000612bea82612b30565b91507fffffffffffffffffffffffffffffffffffffffffffffffffffffffffffffffff821415612c1d57612c1c612c59565b5b600182019050919050565b6000612c3382612b30565b9150612c3e83612b30565b925082612c4e57612c4d612c88565b5b828206905092915050565b7f4e487b7100000000000000000000000000000000000000000000000000000000600052601160045260246000fd5b7f4e487b7100000000000000000000000000000000000000000000000000000000600052601260045260246000fd5b7f4e487b7100000000000000000000000000000000000000000000000000000000600052602260045260246000fd5b7f4e487b7100000000000000000000000000000000000000000000000000000000600052604160045260246000fd5b6000601f19601f8301169050919050565b7f4552433732313a207472616e7366657220746f206e6f6e20455243373231526560008201527f63656976657220696d706c656d656e7465720000000000000000000000000000602082015250565b7f4552433732313a207472616e736665722066726f6d20696e636f72726563742060008201527f6f776e6572000000000000000000000000000000000000000000000000000000602082015250565b7f4552433732313a20746f6b656e20616c7265616479206d696e74656400000000600082015250565b7f4552433732313a207472616e7366657220746f20746865207a65726f2061646460008201527f7265737300000000000000000000000000000000000000000000000000000000602082015250565b7f4552433732313a20617070726f766520746f2063616c6c657200000000000000600082015250565b7f4552433732313a206f70657261746f7220717565727920666f72206e6f6e657860008201527f697374656e7420746f6b656e0000000000000000000000000000000000000000602082015250565b7f4552433732313a20617070726f76652063616c6c6572206973206e6f74206f7760008201527f6e6572206e6f7220617070726f76656420666f7220616c6c0000000000000000602082015250565b7f4552433732313a2062616c616e636520717565727920666f7220746865207a6560008201527f726f206164647265737300000000000000000000000000000000000000000000602082015250565b7f4552433732313a206f776e657220717565727920666f72206e6f6e657869737460008201527f656e7420746f6b656e0000000000000000000000000000000000000000000000602082015250565b7f45524337323155524953746f726167653a2055524920736574206f66206e6f6e60008201527f6578697374656e7420746f6b656e000000000000000000000000000000000000602082015250565b7f4552433732313a206d696e7420746f20746865207a65726f2061646472657373600082015250565b7f45524337323155524953746f726167653a2055524920717565727920666f722060008201527f6e6f6e6578697374656e7420746f6b656e000000000000000000000000000000602082015250565b7f4552433732313a20617070726f76656420717565727920666f72206e6f6e657860008201527f697374656e7420746f6b656e0000000000000000000000000000000000000000602082015250565b7f4552433732314d657461646174613a2055524920717565727920666f72206e6f60008201527f6e6578697374656e7420746f6b656e0000000000000000000000000000000000602082015250565b7f4552433732313a20617070726f76616c20746f2063757272656e74206f776e6560008201527f7200000000000000000000000000000000000000000000000000000000000000602082015250565b7f4552433732313a207472616e736665722063616c6c6572206973206e6f74206f60008201527f776e6572206e6f7220617070726f766564000000000000000000000000000000602082015250565b6131ad81612ac6565b81146131b857600080fd5b50565b6131c481612ad8565b81146131cf57600080fd5b50565b6131db81612ae4565b81146131e657600080fd5b50565b6131f281612b30565b81146131fd57600080fd5b5056fea26469706673582212202fadbee8cc8e862cc31681fdea52428d1cd0067cba7593e07164589f6c4ce2c264736f6c63430008040033",
  "linkReferences": {},
  "deployedLinkReferences": {}
}